{
  "txid": "98d1a7aee39b3e191e52deec82ce909f15390e4c9cf5959aaa6b5ec1e5b90708",
  "hash": "98d1a7aee39b3e191e52deec82ce909f15390e4c9cf5959aaa6b5ec1e5b90708",
  "version": 1,
  "size": 257,
  "vsize": 257,
  "weight": 1028,
  "locktime": 0,
  "vin": [
    {
      "txid": "90d3afccca982fbca2009bcdede3ac2e5989802ce3c87e95dfab31ca5636d0bb",
      "vout": 0,
      "scriptSig": {
        "asm": "30440220189e64af4f017d56306db11596ced6432afae2b71b3c29b1bf71019e5d146f9702206da4f056cb13398fc8f9f093c2d1347c1c707a31b5ecfd35a887f7dedec12da1[ALL] 04e7a901c44c2148f4ccc97daaea954fc8d2a3650a5cce882b655dbf43c90e38491fa099ea67ee1d6c62ed4e04699c40102e39baaeadeae2f0ee7a5d8688e50a31",
        "hex": "4730440220189e64af4f017d56306db11596ced6432afae2b71b3c29b1bf71019e5d146f9702206da4f056cb13398fc8f9f093c2d1347c1c707a31b5ecfd35a887f7dedec12da1014104e7a901c44c2148f4ccc97daaea954fc8d2a3650a5cce882b655dbf43c90e38491fa099ea67ee1d6c62ed4e04699c40102e39baaeadeae2f0ee7a5d8688e50a31"
      },
      "sequence": 4294967295
    }
  ],
  "vout": [
    {
      "value": 0.05000000,
      "n": 0,
      "scriptPubKey": {
        "asm": "OP_DUP OP_HASH160 0cd87ea86393b89c4cc540f59fc8cde643ba738f OP_EQUALVERIFY OP_CHECKSIG",
        "desc": "addr(12AvTd3Le5sUgJuX8mnLprufSojvEEUrGX)#qydwlcag",
        "hex": "76a9140cd87ea86393b89c4cc540f59fc8cde643ba738f88ac",
        "address": "12AvTd3Le5sUgJuX8mnLprufSojvEEUrGX",
        "type": "pubkeyhash"
      }
    },
    {
      "value": 13.65000000,
      "n": 1,
      "scriptPubKey": {
        "asm": "OP_DUP OP_HASH160 612ba64b6419676f6f8b4b4f10c8a5e9dc5ff728 OP_EQUALVERIFY OP_CHECKSIG",
        "desc": "addr(19rnqSBGFnAQA6kceebjQbANGv7ZxuF6fc)#avww7fxu",
        "hex": "76a914612ba64b6419676f6f8b4b4f10c8a5e9dc5ff72888ac",
        "address": "19rnqSBGFnAQA6kceebjQbANGv7ZxuF6fc",
        "type": "pubkeyhash"
      }
    }
  ],
  "blockhash": "00000000000997f9fd2fe1ee376293ef8c42ad09193a5d2086dddf8e5c426b56",
  "hex": "0100000001bbd03656ca31abdf957ec8e32c8089592eace3edcd9b00a2bc2f98caccafd390000000008a4730440220189e64af4f017d56306db11596ced6432afae2b71b3c29b1bf71019e5d146f9702206da4f056cb13398fc8f9f093c2d1347c1c707a31b5ecfd35a887f7dedec12da1014104e7a901c44c2148f4ccc97daaea954fc8d2a3650a5cce882b655dbf43c90e38491fa099ea67ee1d6c62ed4e04699c40102e39baaeadeae2f0ee7a5d8688e50a31ffffffff02404b4c00000000001976a9140cd87ea86393b89c4cc540f59fc8cde643ba738f88ac403f5c51000000001976a914612ba64b6419676f6f8b4b4f10c8a5e9dc5ff72888ac00000000"
}