{
  "txid": "ec48a887153a692113d4850299f3a634194062201c055025950aaa3f8270a7bc",
  "hash": "ec48a887153a692113d4850299f3a634194062201c055025950aaa3f8270a7bc",
  "version": 1,
  "size": 404,
  "vsize": 404,
  "weight": 1616,
  "locktime": 0,
  "vin": [
    {
      "txid": "4087ed226d3be82f30bc256051498e97171b91a9c77cb545a19c0bb245618614",
      "vout": 0,
      "scriptSig": {
        "asm": "304502204473dc8fef4fac9a055aed336c07b0fdb15ad57e051d7dde153c374bc0b22f70022100e5ef0932c96aec0e6d640cf3f788f8124fd5757d87147719e1809eecb6ca0bf0[ALL] 04b10832742d552c07e86014e69070f0286b5f99c61ba72e4424058fab37172bba2c9724e8cf68c0aa52b58e5106fce38d42f8fcd683f9a8b547ef92d88675e728",
        "hex": "48304502204473dc8fef4fac9a055aed336c07b0fdb15ad57e051d7dde153c374bc0b22f70022100e5ef0932c96aec0e6d640cf3f788f8124fd5757d87147719e1809eecb6ca0bf0014104b10832742d552c07e86014e69070f0286b5f99c61ba72e4424058fab37172bba2c9724e8cf68c0aa52b58e5106fce38d42f8fcd683f9a8b547ef92d88675e728"
      },
      "sequence": 4294967295
    },
    {
      "txid": "135464d572010f59ac4797116ce6989ceec322a12a634f88139fbf47e4e952ee",
      "vout": 1,
      "scriptSig": {
        "asm": "304502202a772fb95a1edb37a45e165ba48ca53e8cbe4910250c890867cacc08ac18b1e50221009980b7d22c14b92ff181d84ebf3ea906dfb2fe25741ec4a66110646e1e2d48cc[ALL] 045511214856baac41f7f6a62ad22d3849d4714c2e1f370f36c0e5dd39d036e23b1430daf1682ad2b820ad86adbf9f62920935b5b31e4001d7446ab29676621498",
        "hex": "48304502202a772fb95a1edb37a45e165ba48ca53e8cbe4910250c890867cacc08ac18b1e50221009980b7d22c14b92ff181d84ebf3ea906dfb2fe25741ec4a66110646e1e2d48cc0141045511214856baac41f7f6a62ad22d3849d4714c2e1f370f36c0e5dd39d036e23b1430daf1682ad2b820ad86adbf9f62920935b5b31e4001d7446ab29676621498"
      },
      "sequence": 4294967295
    }
  ],
  "vout": [
    {
      "value": 5.00000000,
      "n": 0,
      "scriptPubKey": {
        "asm": "OP_DUP OP_HASH160 569a4e083c078480d9a55b5fb7589695e194a756 OP_EQUALVERIFY OP_CHECKSIG",
        "desc": "addr(18tuxnTfv4C4KVA9nNEfrE8oEnkWvgUSeo)#zn7l73e2",
        "hex": "76a914569a4e083c078480d9a55b5fb7589695e194a75688ac",
        "address": "18tuxnTfv4C4KVA9nNEfrE8oEnkWvgUSeo",
        "type": "pubkeyhash"
      }
    }
  ],
  "blockhash": "00000000000997f9fd2fe1ee376293ef8c42ad09193a5d2086dddf8e5c426b56",
  "hex": "010000000214866145b20b9ca145b57cc7a9911b17978e49516025bc302fe83b6d22ed8740000000008b48304502204473dc8fef4fac9a055aed336c07b0fdb15ad57e051d7dde153c374bc0b22f70022100e5ef0932c96aec0e6d640cf3f788f8124fd5757d87147719e1809eecb6ca0bf0014104b10832742d552c07e86014e69070f0286b5f99c61ba72e4424058fab37172bba2c9724e8cf68c0aa52b58e5106fce38d42f8fcd683f9a8b547ef92d88675e728ffffffffee52e9e447bf9f13884f632aa122c3ee9c98e66c119747ac590f0172d5645413010000008b48304502202a772fb95a1edb37a45e165ba48ca53e8cbe4910250c890867cacc08ac18b1e50221009980b7d22c14b92ff181d84ebf3ea906dfb2fe25741ec4a66110646e1e2d48cc0141045511214856baac41f7f6a62ad22d3849d4714c2e1f370f36c0e5dd39d036e23b1430daf1682ad2b820ad86adbf9f62920935b5b31e4001d7446ab29676621498ffffffff010065cd1d000000001976a914569a4e083c078480d9a55b5fb7589695e194a75688ac00000000"
}